:100000000C942E020C9456020C9456020C94560238
:100010000C9456020C9456020C9456020C94560200
:100020000C9456020C946A0E0C94C90B0C94380C68
:100030000C9456020C9456020C9456020C945602E0
:100040000C9456020C9456020C9456020C945602D0
:100050000C9456020C9456020C9456020C947F0B8E
:100060000C9456020C9456020C9456020C945602B0
:100070000C9456020C9456020C9456020C945602A0
:100080000C9456020C9456020C9456020C94560290
:100090000C9456020C9456020C9456020C94560280
:1000A0000C9456020C9456020C9456020000000068
:1000B0000000000000000000000000002A002B00EB
:1000C0002800000000000000000000000000000008
:1000D0000000000000000000000000000000000020
:1000E0000000000000000000000000002C001E02C4
:1000F00034022002210222022402340026022702B6
:1001000025022E0236002D003700380027001E0081
:100110001F002000210022002300240025002600CB
:100120003302330036022E00370238021F02040267
:10013000050206020702080209020A020B020C026B
:100140000D020E020F02100211021202130214021B
:10015000150216021702180219021A021B021C02CB
:100160001D022F003100300023022D023500040053
:10017000050006000700080009000A000B000C003B
:100180000D000E000F0010001100120013001400EB
:10019000150016001700180019001A001B001C009B
:1001A0001D002F0231023002350200000000000065
:1001B000000000000000000000000000000000003F
:1001C000000000000000000000000000000000002F
:1001D000000000000000000000000000000000001F
:1001E000000000000000000000000000000000000F
:1001F00000000000000000000000000000000000FF
:1002000000000000000000000000000000000000EE
:1002100000000000000000000000000000000000DE
:1002200000000000000000000000000000000000CE
:1002300000000000000000000000000000000000BE
:1002400000000000000000000000000000000000AE
:10025000000000000000000000000000000000009E
:10026000000000000000000000000000000000008E
:10027000000000000000000000000000000000007E
:10028000000000000000000000000000000000006E
:10029000000000000000000000000000000000005E
:1002A000000000000000000000000000080B000239
:1002B00002020000090400000102020000052400FF
:1002C0001001052401010104240206052406000191
:1002D0000705810310004009040100020A00000024
:1002E00007050202400000070583024000000403E6
:1002F000090412010002EF0201404123368000018F
:100300000102030141726475696E6F204C4C430019
:1003100041726475696E6F204C656F6E6172646FB7
:10032000000000000200090F0000030401000C009F
:1003300000000000000000000000000000000000BD
:1003400005010906A1018508050719E029E715003F
:1003500025017501950881021900296715002501FD
:1003600075019568810295017508150026E7001949
:100370000029E78100C005010902A10185010509E5
:10038000190129081500250195087501810205014B
:100390000930093109381581257F750895038106D3
:1003A000C005010904A101850605091901292015C7
:1003B0000025017501952081020501A10009300980
:1003C000310933093416008026FF7F7510950481AA
:1003D00002093209351580257F750895028102C012
:1003E00005010939093915012508950275048102AD
:1003F000C0000000002300260029002C002F000070
:10040000000000240027002A002D0030000000001A
:1004100000250028002B002E0031000408020110E6
:10042000408040102040804080080204018040202D
:100430001002011080102040402004040404040332
:100440000405020202020403020202020606060674
:1004500006060404020202040400240F11241FBE35
:10046000CFEFDAE0DEBFCDBF11E0A0E0B1E0E8E61B
:10047000FBE202C005900D92A03CB107D9F722E043
:10048000A0ECB1E001C01D92A13DB207E1F712E07E
:10049000CEE2D2E004C02197FE010E948714CD3243
:1004A000D107C9F70E944F100C94B2150C940000AC
:1004B000FC0180911502882311F13FB7F89482E086
:1004C0008093E9002091F200822F90E0181619061F
:1004D00014F481E090E0882339F0289844E64093B2
:1004E00014024091F1004083222339F02091F20060
:1004F000211103C02BE62093E8003FBF08958FEF42
:100500009FEF0895CF93DF931F92CDB7DEB7698336
:10051000DC01ED91FC910280F381E02D41E050E09F
:10052000BE016F5F7F4F09950F90DF91CF910895C6
:1005300083E08093E9008091F200882319F08AE338
:100540008093E8000895CF93DF931F92CDB7DEB775
:10055000FC018485958597FD08C02FEF3FEF358717
:1005600024870F90DF91CF910895CE0101960E94CC
:100570005802019719F4898190E0F3CF8FEF9FEF34
:10058000F0CF0F931F93CF93DF931F92CDB7DEB7BA
:100590008C01FC018485958597FF0BC0CE010196E7
:1005A0000E945802019771F4898190E0F8019587C3
:1005B0008487F801848595850F90DF91CF911F91F5
:1005C0000F9108958FEF9FEFF1CFFC018485958502
:1005D00097FD0BC09FB7F89482E08093E90080916B
:1005E000F2009FBF90E0019608959FB7F89482E0D3
:1005F0008093E9008091F2009FBF90E00895282F3A
:1006000030E0F901EF5DFC4F9491F901E55EFB4F9D
:100610008491265C3B4FF9012491222309F45BC0AD
:100620009923E9F091509F30D0F4E92FF0E0E55E96
:10063000FC4F0C94871446034A032A033E034203EB
:100640002F032F032F034D03530357035B03610352
:100650002F036503909180009F7790938000E22F95
:10066000F0E0EE0FFF1FEF50FC4FA591B491EC911D
:10067000E82381E090E089F580E008959091800082
:100680009F7DEBCF90918000977FE7CF94B59F77C8
:1006900094BDE5CF94B59F7DFBCF909190009F775F
:1006A00090939000DCCF909190009F7DF9CF909136
:1006B0009000977FF5CF9091C0009F779093C000F6
:1006C000CECF9091C0009F7DF9CF9091C200977FCF
:1006D0009093C200C4CF80E090E00895CF93DF9361
:1006E00090E0FC01E55EFB4F2491865C9B4FFC0192
:1006F00084918823C9F090E0880F991FFC01E15094
:10070000FC4FA591B491FC01E35FFB4FC591D491DF
:1007100061110DC09FB7F8948C91209582238C9322
:100720008881282328839FBFDF91CF91089562306D
:1007300051F49FB7F8943C91822F809583238C933A
:10074000E8812E2BEFCF8FB7F894EC912E2B2C93C2
:100750008FBFEACF8230910538F0880F991F880F3C
:10076000991F05970197F1F708953FB7F894809185
:10077000100290911102A0911202B091130226B5BD
:10078000A89B05C02F3F19F00196A11DB11D3FBFC9
:10079000BA2FA92F982F8827BC01CD01620F711D98
:1007A000811D911D42E0660F771F881F991F4A9592
:1007B000D1F708958F929F92AF92BF92CF92DF921E
:1007C000EF92FF924B015C010E94B5036B017C012B
:1007D0000E94B5036C197D098E099F09683E73401C
:1007E00081059105A8F321E0821A9108A108B108BA
:1007F00088EEC80E83E0D81EE11CF11C8114910420
:10080000A104B10429F7FF90EF90DF90CF90BF9043
:10081000AF909F908F9008952FB7F89460910C023D
:1008200070910D0280910E0290910F022FBF0895DA
:100830004091EB015091EC012091E9013091EA01E6
:1008400042175307B4F49091E8009570E1F390914A
:10085000E80092FD19C08093F1008091EB01909126
:10086000EC0101968F739927892B19F48EEF8093F1
:10087000E8008091EB019091EC0101969093EC01DE
:100880008093EB0181E0089580E00895EF92FF925C
:100890000F931F93CF93DF93F82E192FE62E042F7B
:1008A00081E0860F880F0E94180483E00E941804DC
:1008B000CF2DD12FEC0EFD2EF11CCE15DF05B9F09A
:1008C00007FF13C0FE0184910E941804182F80E0D6
:1008D0000E941804812321968111EFCFDF91CF91DF
:1008E0001F910F91FF90EF9008958881EDCF81E0E7
:1008F000F5CFDF92EF92FF920F931F93CF93DF9389
:10090000D82E8A01EB017B01E40EF51ECE15DF0522
:1009100059F0D7FE12C0FE0184910E94180421965E
:100920008111F4CF0FEF1FEFC801DF91CF911F911D
:100930000F91FF90EF90DF9008958881EECF2FB751
:10094000F89487708093E9009091E800892F807275
:1009500095FF04C09091F20080E4891B2FBF089599
:1009600083E00E949F0490E008957F928F929F926F
:10097000AF92BF92CF92DF92EF92FF920F931F93AD
:10098000CF93DF93C82E8B017A01809115028111DC
:1009900010C08FEF9FEFDF91CF911F910F91FF90CC
:1009A000EF90DF90CF90BF90AF909F908F907F900F
:1009B00008958091EF0180FF05C08091E000826082
:1009C0008093E000CE2DDF2DD12C8AEFB82E8C2D18
:1009D0008770982E8C2D8072882E8C2D8074782EA6
:1009E0009AE3A92E209719F4DD2009F452C08C2D2A
:1009F0000E949F0481110AC0BA94BB2051F261E0A9
:100A000070E080E090E00E94DA03ECCF8C171D06C6
:100A100011F00CF08C2F9FB7F8949092E900209180
:100A2000E80025FD02C09FBFDDCF282F30E0C21BAC
:100A3000D30B882029F08150A0F01092F100FBCF59
:100A4000F801C7FC0AC0815050F041914093F10079
:100A5000FACF44914093F10031968150D0F7020FC4
:100A6000131FDD2021F0A092E800D12CDCCF809173
:100A7000E80085FD07C0A092E800DD24D39420970C
:100A800091F2F3CF209779F6772069F2A092E800EF
:100A9000CACF5D9884E68093EE01C7017CCFCF93E7
:100AA000DF93EC0180911401882331F083E00E94F0
:100AB000B5041816190634F081E090E09B838A8310
:100AC00080E090E0DF91CF910895615030F0209167
:100AD000F100FC0120830196F8CF289884E68093EA
:100AE00014020895AF92BF92CF92DF92EF92FF92DD
:100AF0000F931F93CF93DF936C017B018B01040F46
:100B0000151FEB015E01AE18BF08C017D10759F0E1
:100B10006991D601ED91FC910190F081E02DC60123
:100B20000995892B79F7C501DF91CF911F910F911D
:100B3000FF90EF90DF90CF90BF90AF90089580919D
:100B4000E10181110DC082E08093DD0184E080939A
:100B5000DE011092E0011092DF0181E08093E1015B
:100B60008DED91E008950F931F93CF93DF931F9224
:100B7000CDB7DEB782E0898342E450E06CEA72E0F0
:100B800080E80E9479040E949F05DC0112960D9175
:100B90001C910115110589F0D801ED91FC9102809D
:100BA000F381E02DBE016F5F7F4FC801099597FD6E
:100BB00004C0F80100851185ECCF89810F90DF9189
:100BC000CF911F910F910895CF92DF92EF92FF92F4
:100BD0000F931F93CF93DF93EC01E885F985908104
:100BE0008A818095892380838B89882331F0EC81E9
:100BF000FD8180819A81892B8083EA85FB859081A4
:100C00008B818095892380838B89882331F0EE81C5
:100C1000FF8180819B81892B80838C898823C9F007
:100C20000E940C046B017C01EE85FF8580819B8115
:100C3000892379F40E940C046C197D098E099F099F
:100C40000D891E892F89388D6017710782079307D8
:100C500058F389899A89009711F00E94AA03EC85BC
:100C6000FD8580819A81892311E009F410E0EE81ED
:100C7000FF8190818B81809589238083EA85FB8524
:100C800080819B81892B808389899A89009711F0C3
:100C90000E94AA03812FDF91CF911F910F91FF90A6
:100CA000EF90DF90CF900895CF92DF92EF92FF9276
:100CB0000F931F93CF93DF93EC018A81809561118D
:100CC0005EC0EC81FD81908189238083E885F98570
:100CD00080819A81892B808389899A89009711F074
:100CE0000E94AA03EA85FB8590818B8180958923E8
:100CF00080838B89882331F0EE81FF8180819B8105
:100D0000892B80838C898823C9F00E940C046B0195
:100D10007C01EE85FF8580819B81892379F40E9487
:100D20000C046C197D098E099F090D891E892F8974
:100D3000388D601771078207930758F389899A895C
:100D4000009711F00E94AA03EE81FF8190818B81B0
:100D5000809589238083EA85FB8580819B81892B0F
:100D6000808389899A890097B1F0DF91CF911F9193
:100D70000F91FF90EF90DF90CF900C94AA03E8853D
:100D8000F9859081892380838B89882309F4A4CFF6
:100D9000EC81FD819DCFDF91CF911F910F91FF904D
:100DA000EF90DF90CF900895CF92DF92EF92FF9275
:100DB0001F93CF93DF93EC01EB80F12C8A810E948B
:100DC000FF026C011B8189810E94FF0298819F7044
:100DD000EC24FD24EE0CFF1CE12FE827EE2924E093
:100DE000929FC0011124815D9E4FE80FF92FF11DE4
:100DF000808188838073DF91CF911F91FF90EF9066
:100E0000DF90CF900895DC01FB0112962C91129790
:100E1000848195812817190641F491818081813A56
:100E200031F49D7F81E0913009F080E008958132B6
:100E3000E1F79B3029F482811F968C9381E008951D
:100E40009A3099F7828150968C93F8CFAF92BF92E7
:100E5000CF92DF92EF92FF920F931F93CF93DF9386
:100E60001F92CDB7DEB77C0169836A01590141E069
:100E700050E0BE016F5F7F4FFC0183810E94B5048B
:100E80008C0197FD0BC0F7018381A501B601806439
:100E90000E94B504080F191F97FD8C01C8010F901F
:100EA000DF91CF911F910F91FF90EF90DF90CF9046
:100EB000BF90AF900895DC01FB0188E4808389E452
:100EC000818384E482831D969C911D979F709F5B14
:100ED00093831D968D919C9124E0969587952A95F4
:100EE000E1F78F708F5B848385E00895EF92FF9226
:100EF0000F931F93CF93DF93FB012081213871F56E
:100F00002381223259F5DC0112964C9124813581DE
:100F10004217130619F5EC010B851C85F12CE12C09
:100F20000115110589F0F8014481558162817381B1
:100F300080E80E9479048F3F980749F0E80EF91E77
:100F4000D8010D911C91ECCF81E08F87C701DF9113
:100F5000CF911F910F91FF90EF90089590E080E066
:100F6000F6CFCF93DF93CDB7DEB769970FB6F8947E
:100F7000DEBF0FBECDBFFC01DB018C918F5F8C9378
:100F80009E012D5F3F4F8DE0D9011D928A95E9F7B3
:100F900029E0298384E08A8391E09D8383E08E8326
:100FA0002A8721E22B879C879D879F8722E2288BB7
:100FB00027E02B8B25E02C8B8E8B20E430E0388FC4
:100FC0002F8B998F82818B8395858685998B8A8BD0
:100FD000838180688D8B49E150E0BE016F5F7F4F58
:100FE00080E00E94790469960FB6F894DEBF0FBEC8
:100FF000CDBFDF91CF910895CF93DF938091D5013D
:10100000811167C081E08093C8018093C9012EECF3
:1010100031E03093CB012093CA011092CD011092A0
:10102000CC0127E231E03093C5012093C401109236
:10103000D0011092CF011092D2011092D101809371
:10104000D3018093D40181EC8093CE010E949F054F
:10105000FC0181819091C801482F490F5527551FE8
:10106000483051059CF5A281B381109709F524EC15
:1010700031E03383228320812093C6018093C7010E
:101080008091C901820F80832091CA01A22FB09163
:10109000CB018A2F821B8917C8F481813D91C82F0B
:1010A000D0E0CE5FDE4F38838F5F8183F2CFD901EE
:1010B00018962D913C91199721153105C1F724EC13
:1010C00031E019963C932E931897D5CF81E0809309
:1010D000D50184EC91E0DF91CF910895CF93DF9318
:1010E000EC010E94FC07AE014C5F5F4F2FE030E047
:1010F00068E0DF91CF910C942607FC01BC01615F91
:101100007F4F30E020E09481492F50E090FF02C0F3
:101110002F5F3F4F55954795942F4111F5CF14827E
:1011200031966E177F0779F7C9010895089590E009
:1011300080E008950F931F93CF93DF93EB018A0113
:101140000E94FC079801AE0161E0DF91CF911F91F1
:101150000F910C942607CF93DF9300D000D0CDB72A
:10116000DEB79091970299838A836B831C8244E057
:1011700050E0BE016F5F7F4F85E992E00E949A08C0
:101180000F900F900F900F90DF91CF9108950F93D4
:101190001F93CF93DF93EB018A010E94FC07980114
:1011A000AE0166E0DF91CF911F910F910C9426075D
:1011B000FC016836C0F4862F877021E030E001C062
:1011C000220F8A95EAF7669566956695E60FF11DFA
:1011D0008581442329F0282B258381E090E0089520
:1011E00020952823F9CF90E2960F983078F48481E7
:1011F00021E030E001C0220F9A95EAF7442319F06C
:10120000282B2483EACF20952823FBCF82894423EF
:1012100031F0681711F0811106C0628BDECF6813C0
:1012200002C0128ADACF90E080E00895CF92DF9278
:10123000FF920F931F93CF93DF938C01F42EE62F31
:10124000F0E0EE0FFF1FE455FF4FC590D490D8019A
:10125000ED91FC910484F585E02D6C2DC801099574
:10126000EC01892B11F4F11070C0D0FE0CC0D80134
:10127000ED91FC910484F585E02D4F2D60EEC801C1
:101280000995C82BD92BD1FE0CC0D801ED91FC914A
:101290000484F585E02D4F2D61EEC8010995C82B1A
:1012A000D92BD2FE0CC0D801ED91FC910484F585B8
:1012B000E02D4F2D62EEC8010995C82BD92BD3FE26
:1012C0000CC0D801ED91FC910484F585E02D4F2DE3
:1012D00063EEC8010995C82BD92BD4FE0CC0D801E8
:1012E000ED91FC910484F585E02D4F2D64EEC8014D
:1012F0000995C82BD92BD5FE0CC0D801ED91FC91D6
:101300000484F585E02D4F2D65EEC8010995C82BA5
:10131000D92BD6FE0CC0D801ED91FC910484F58543
:10132000E02D4F2D66EEC8010995C82BD92BD7FEAD
:101330000CC0D801ED91FC910484F585E02D4F2D72
:1013400067EEC8010995C82BD92BCE01DF91CF914B
:101350001F910F91FF90DF90CF9008950F931F93EF
:10136000CF93DF93EC0140E00E9416098C01892B9A
:1013700039F0E881F9810284F385E02DCE010995E9
:10138000C801DF91CF911F910F9108950F931F9383
:10139000CF93DF93EC0141E00E9416098C01892B69
:1013A00039F0E881F9810284F385E02DCE010995B9
:1013B000C801DF91CF911F910F910895FF920F9374
:1013C0001F93CF93DF938C01F62E0E94C609EC0188
:1013D000892B21F06F2DC8010E94AE09CE01DF914B
:1013E000CF911F910F91FF900895FC010190002073
:1013F000E9F73197AF01481B590BBC018FEB92E025
:101400000C947205CF92DF92EF92FF920F931F938D
:10141000CF93DF938C01E62EFC01C485D585F48043
:10142000188AE885F98590818A818095892380834F
:101430008B89882331F0EC81FD8180819A81892B11
:101440008083EA85FB8590818B81809589238083C9
:101450008B89882331F0EE81FF8180819B81892BEC
:10146000808389899A89009711F00E94AA03EC85EC
:10147000FD8590818A819823EE85FF8520813B81BF
:10148000232341F484E001C082E0888B3CC082E0E9
:10149000888B52C09923B1F3EC81FD8190818095B6
:1014A00089238083E885F98580819A81892B8083CF
:1014B00089899A89009711F00E94AA03EE81FF8121
:1014C00090818B81809589238083EA85FB8580814B
:1014D0009B81892B808389899A89009711F00E94CA
:1014E000AA03FF0C98E0D92E6F2D6078CE010E94E0
:1014F0005406FF0CDA94D110F7CFCE010E94E40518
:101500008111C2CF188AF801C485D58588898111D7
:1015100013C0F384FE2888E0E82E6F2D6078CE019A
:101520000E945406FF0CEA94E110F7CFCE010E940E
:10153000E4058111ACCF188AF801C485D585EE8108
:10154000FF8190818B81809589238083EA85FB854B
:1015500080819B81892B8083EC81FD8190818A81B0
:10156000809589238083E885F98580819A81892BFC
:10157000808389899A89009711F00E94AA03EA85DD
:10158000FB8590818B818095892380838B8988233B
:1015900031F0EE81FF8180819B81892B80838C8952
:1015A0008823C9F00E940C046B017C01EE85FF8545
:1015B00080819B81892379F40E940C046C197D0938
:1015C0008E099F090D891E892F89388D6017710733
:1015D0008207930758F389899A89009711F00E942E
:1015E000AA03E885F98590818A8180958923808383
:1015F0008B89882331F0EC81FD8180819A81892B50
:10160000808389899A89009751F0DF91CF911F914A
:101610000F91FF90EF90DF90CF900C94AA03DF9191
:10162000CF911F910F91FF90EF90DF90CF90089591
:101630000F931F93CF938C01C62F0E94020A6C2F29
:101640006460C8010E94020A6C2F6B7FC8010E946F
:10165000020A83EC90E00197F1F7CF911F910F916F
:1016600008950F931F93CF93DF938C01D62FC42F30
:10167000607F642B0E94180B80E1D89FB001112479
:101680006C2BC801DF91CF911F910F910C94180B17
:10169000CF93DF93CDB7DEB728970FB6F894DEBFB0
:1016A0000FBECDBF98E0EBE1F1E0DE0111960190B5
:1016B0000D929A95E1F79091C802981708F48FEF70
:1016C00090E0880F991F21E030E02C0F3D1F820F22
:1016D000931FFC016081606840E08FEB92E02896E8
:1016E0000FB6F894DEBF0FBECDBFDF91CF910C9443
:1016F000310B41E00E94310B81E090E008951F9290
:101700000F920FB60F9211242F933F938F939F93B5
:10171000AF93BF9380910C0290910D02A0910E02A5
:10172000B0910F0230910B0223E0230F2D3758F5B3
:101730000196A11DB11D20930B0280930C02909382
:101740000D02A0930E02B0930F02809110029091AF
:101750001102A0911202B09113020196A11DB11DB8
:101760008093100290931102A0931202B09313027F
:10177000BF91AF919F918F913F912F910F900FBE8D
:101780000F901F90189526E8230F0296A11DB11DFA
:10179000D2CF1F920F920FB60F9211248F939F9367
:1017A0008091E1009091E100937F9093E10083FFAD
:1017B0000FC01092E90091E09093EB001092EC00C2
:1017C00092E39093ED001092150298E09093F00050
:1017D00082FF22C093E09093E9009091F200992358
:1017E00019F09AE39093E8009091EE01992341F06B
:1017F0009091EE0191509093EE01911101C05D9A8C
:1018000090911402992341F0909114029150909379
:101810001402911101C0289A84FF18C08091E2003F
:101820008E7E81608093E2008091E1008F7E8093C4
:10183000E1008091EF018E7E80618093EF019F91A6
:101840008F910F900FBE0F901F90189580FFF7CFCC
:101850008091E2008E7E80618093E2008091E100C1
:101860008E7E8093E1008091EF018E7E8160E5CFD6
:101870001F920F920FB60F921124CF92DF92EF9228
:10188000FF920F931F932F933F934F935F936F9309
:101890007F938F939F93AF93BF93EF93FF93CF93D8
:1018A000DF93CDB7DEB76C97DEBFCDBF1092E900F6
:1018B0008091E80083FF25C068E0CE0145960E9434
:1018C000650582EF8093E8008D8987FF39C090918C
:1018D000E80090FFFCCF982F907609F034C19E89E4
:1018E0004F89588D2F89F88C911131C0803861F55E
:1018F0008091F0018093F1001092F1008EEF8093BF
:10190000E8006C960FB6F894DEBF0FBECDBFDF9136
:10191000CF91FF91EF91BF91AF919F918F917F9167
:101920006F915F914F913F912F911F910F91FF9078
:10193000EF90DF90CF900F900FBE0F901F901895F3
:101940009EEF9093E800C7CF1092F100D5CF913071
:1019500059F48111D3CF4130510581F68091F001C6
:101960008D7F8093F001CACF933049F48111C6CFA7
:101970004130510519F68091F0018260F2CF953027
:1019800041F48091E80080FFFCCF20682093E300C1
:10199000B5CF963009F0A9C00B8D1C8D22E01092B6
:1019A000E9001092EC011092EB01F2122EC010929D
:1019B000EA011092E9010E94B3051F8299E0998320
:1019C000FA8291E09E8390EA98879AEF9987209116
:1019D000EB013091EC01275F3F4F3C832B838D83DC
:1019E0001092E9001092EC011092EB011093EA01C1
:1019F0000093E90149E050E0BE016F5F7F4F80E056
:101A00000E9479040E94B30579CF1093EA010093F4
:101A1000E9010E949F05DC0112960D911C910115B0
:101A2000110509F451C1D801ED91FC910480F581B3
:101A3000E02DBE016B5E7F4FC8010995009709F04C
:101A40003EC1F80100851185EACFF3E0FF120EC018
:101A50008F89882309F440C0823061F440E860E156
:101A600080E193E00E944604811148CF81E2809397
:101A7000EB0047CF813029F440E86BE084E093E04D
:101A8000F1CF833099F70E949F05DC011296ED900B
:101A9000FC908E010F5F1F4F6801E114F10479F093
:101AA000D701ED91FC910680F781E02DB801C701C7
:101AB0000995080F111DF701E084F184EECFD801DC
:101AC0001C92F60101900020E9F73197BF016C19D3
:101AD0007D0940E0C601C6CF6EEE72E0FB01449185
:101AE00050E080E80E94790409CF973009F4BECF16
:101AF000983021F481E08093F10000CF993009F013
:101B0000FDCE837009F0B2CFE3E0F1E081E031E097
:101B100096E32191222371F08093E9003093EB004A
:101B2000DF0111972C912093EC009093ED008F5FD3
:101B3000873079F78EE78093EA001092EA008F8968
:101B400080931502DBCE8B8D9C8D1092E900109254
:101B5000EC011092EB019093EA018093E901898DE9
:101B6000811192C08E899D89913A49F4813209F0A0
:101B70007DCF47E050E06DE071E080E0B3CF91327F
:101B800009F074CF833269F48F89988DB0E0A0E0BA
:101B90008093090190930A01A0930B01B0930C016B
:101BA000ADCE803269F48091E80082FFFCCF67E01F
:101BB0008DE091E00E9465058BEF8093E8009ECE5A
:101BC000823209F09BCE8F8980931401EEEFFFE7FC
:101BD000859194918B3F9C4D51F1E0E0F8E080912C
:101BE0000D0190910E01A0910F01B0911001803B69
:101BF0009440A105B105F1F48091140180FD1AC053
:101C0000EE3F8AE0F80789F587E797E791838083BD
:101C1000809160008093ED0188E19BE00FB6F8941D
:101C2000A895809360000FBE9093600067CEEEEFA2
:101C3000FAE0D5CF808191818737974709F05ECE52
:101C4000A895809160008861809360008091ED018B
:101C500080936000EE3F2AE0F20789F08091FE0A4F
:101C60009091FF0A9183808349CE8081918187374B
:101C7000980751F29093FF0A8093FE0AC5CF109205
:101C8000FF0A1092FE0A3ACE0E949F05DC011296CE
:101C90000D911C910115110509F4E8CED801ED91C3
:101CA000FC910190F081E02DBE016B5E7F4FC80179
:101CB0000995811123CEF80100851185EBCF181607
:101CC00019060CF41BCED2CEF1E0FF12BECE62EFAD
:101CD00072E004CF1F920F920FB60F9211240F9350
:101CE0001F932F933F934F935F936F937F938F93A4
:101CF0009F93AF93BF93EF93FF93CF93DF9300D066
:101D0000CDB7DEB78BEB92E00E94D406898387EBD8
:101D100092E00E94D4068A838E010F5F1F4F50E02D
:101D200040E0F80181918F01803109F046C0809137
:101D30000001909101019A01220F331FD901A35094
:101D4000BE4F6D917C9197FD019695958795681B87
:101D5000790BD901A350BE4F11967C936E938D9150
:101D60009C91119797FF0CC0809100019091010107
:101D700027503E4FF9019183808311961C921E9249
:101D800041305105B9F40F900F90DF91CF91FF9141
:101D9000EF91BF91AF919F918F917F916F915F91E3
:101DA0004F913F912F911F910F910F900FBE0F9068
:101DB0001F90189541E050E0B4CF803209F7809130
:101DC0000001909101019A01220F331FD901A75000
:101DD000BE4F6D917C9197FD019695958795681BF7
:101DE000790BD901A750BE4F11967C936E938D91BC
:101DF0009C91119797FFC4CF11961C921E928091CF
:101E000000019091010123503E4FF901918380839D
:101E1000B7CFFC01A385B485109771F474876387ED
:101E200085859685DB0114962D913C91820F931F39
:101E3000968785870895DC018D919C911197009775
:101E4000D1F76D937C93ECCF109219021092180287
:101E500088EE93E0A0E0B0E080931A0290931B021A
:101E6000A0931C02B0931D028BE591E090931702A2
:101E7000809316028FEF9FEF9093230280932202AC
:101E800010927702109276028DE691E0909375029F
:101E90008093740280916C02811113C010926702CA
:101EA0001092660280E493E0909369028093680246
:101EB00086E390E090936B0280936A0281E08093C6
:101EC0006C020E94FC0766E672E00E94090F109205
:101ED00097028FE791E0909396028093950280910C
:101EE0008D02811113C0109288021092870286E73A
:101EF00093E090938A02809389028BE290E0909322
:101F00008C0280938B0281E080938D020E94FC07FB
:101F100067E872E00E94090F85E891E09093A702BC
:101F20008093A60280919E02811113C010929902A3
:101F30001092980281EA93E090939B0280939A0218
:101F400080E590E090939D0280939C0281E08093D5
:101F50009E020E94FC0768E972E00E94090F8BE371
:101F600090E00E948D14DC0182E18C9383E1119654
:101F70008C93119781E053968C93539754968C933E
:101F8000549782E090E052969C938E93519748EE3E
:101F900053E060E070E055964D935D936D937C93B4
:101FA0005897ECE4F4E08491EDE2F4E0E4911296C9
:101FB000EC93129790E0880F991FFC01E35FFB4FB1
:101FC0002591349115963C932E931497FC01E15082
:101FD000FC4F2591349119963C932E931897FC0150
:101FE000EF50FC4F859194911D969C938E931C9776
:101FF000EDE4F4E08491EEE2F4E0E4911396EC93E6
:10200000139790E0880F991FFC01E35FFB4F259128
:10201000349117963C932E931697FC01E150FC4F98
:10202000259134911B963C932E931A97FC01EF5007
:10203000FC4F859194911F969C938E931E971092BE
:10204000C2021092C1028BE891E09093C00280938B
:10205000BF0287E28093C30280E18093C70282E0DF
:102060008093C802B093CC02A093CB021092C90215
:1020700088E08093CA028093BC0289E08093BD020D
:102080001092BB021092BE028AE08093B8028BE0ED
:102090008093B9021092B7021092BA020895CF93BA
:1020A000DF93CDB7DEB7A1970FB6F894DEBF0FBEB2
:1020B000CDBF789484B5826084BD84B5816084BDD1
:1020C00085B5826085BD85B5816085BD80916E00D6
:1020D000816080936E001092810080918100826007
:1020E0008093810080918100816080938100809144
:1020F0008000816080938000809191008260809355
:102100009100809191008160809391008091900076
:102110008160809390008091C10084608093C100B1
:102120008091C10082608093C1008091C100816074
:102130008093C1008091C30081608093C30080912F
:10214000C00082608093C0008091C2008160809353
:10215000C20080917A00846080937A0080917A0036
:10216000826080937A0080917A00816080937A0007
:1021700080917A00806880937A0010921502109204
:10218000F0011092EF018091D70081608093D70019
:1021900080EA8093D80089B5806189BD89B5826065
:1021A00089BD09B400FEFDCF61E070E080E090E001
:1021B0000E94DA038091D8008F7C80618093D800E0
:1021C0008091E000807F8093E0008091E1008E7E2E
:1021D0008093E1008DE08093E200559A209A00916F
:1021E000CB021091CC02D801D9961C92D997DA96DD
:1021F0001C92DA971A96ED91FC911B979081139699
:102200008C91139780958923808353968C91539753
:10221000882349F01696ED91FC91179780811396CB
:102220009C91892B8083F80181899289009711F014
:102230000E94AA03D8011896ED91FC9119979081FC
:1022400012968C91129780958923808353968C9156
:102250005397882349F01496ED91FC91159780814E
:1022600012969C91892B808374E0F72EF801818966
:102270009289009711F00E94AA03FA94F110F6CF08
:10228000D80153968C91882331F062E070E080E0B1
:1022900090E00E94DA031092C4028091C80282305A
:1022A00018F098E09093C4029091C902992339F0F4
:1022B000813029F48091C40284608093C40262E377
:1022C00070E080E090E00E94DA036091CA028FEB38
:1022D00092E00E94020A68EE73E080E090E00E94C3
:1022E000DA0360E38FEB92E00E94180B0BE416E434
:1022F000C8010197F1F760E38FEB92E00E94180BA1
:10230000C8010197F1F760E38FEB92E00E94180B90
:1023100083E592E00197F1F760E28FEB92E00E9493
:10232000180B6091C402606240E08FEB92E00E9463
:10233000310B84E08093C50240E06CE08FEB92E0CB
:102340000E94310B40E061E08FEB92E00E94310B84
:102350000BE31FE1C8010197F1F782E08093C60209
:1023600040E066E08FEB92E00E94310B40E062E0DB
:102370008FEB92E00E94310BC8010197F1F788E0E2
:102380008093CA0260E08FEB92E00E94020A80E034
:102390000E94480BE8EAF2E08FE0DF011D928A9587
:1023A000E9F74FE050E0BF0186EA92E00E94C708DB
:1023B00062E08091BC020E946E0362E08091BD02E7
:1023C0000E946E031092BE0262E08091B8020E94E9
:1023D0006E0362E08091B9020E946E031092BA020D
:1023E00010E062E0812F0E946E031F5F1E30C9F76C
:1023F0008091680081608093680080916B00806F9D
:1024000080936B00789440E0E42E40E0F42E53E09B
:10241000D52E62E0C62E3BE4A32E31E0B32E10E0B1
:10242000812F0E94FF02892B09F0D8C0F50160813D
:1024300084E792E00E94C609BFEFAB1ABB0A1F5F98
:10244000163071F786E00E94FF0220917E02892BF0
:1024500009F4D1C02E7F20937E0284E792E00E948F
:102460006E0880910A028111DCC08091FD0190917B
:10247000FE0167E7181619060CF0BFC084E792E06A
:102480000E94C6098091FF019091000260E7181632
:1024900019060CF0B7C084E792E00E94C60980914B
:1024A000F9019091FA0161E7181619060CF0AFC016
:1024B00084E792E00E94C6098091FB019091FC01A3
:1024C0006FE6181619060CF0A7C084E792E00E9488
:1024D000C6098091FD019091FE0101979093FE0144
:1024E0008093FD018091F9019091FA0101979093F9
:1024F000FA018093F9018091FD019091FE01181677
:10250000190624F01092FE011092FD018091F9014C
:102510009091FA011816190624F01092FA011092FF
:10252000F9018091FF0190910002019790930002C0
:102530008093FF018091FB019091FC0101979093A2
:10254000FC018093FB018091FF019091000218161D
:10255000190624F0109200021092FF018091FB01F5
:102560009091FC011816190624F01092FC011092AB
:10257000FB0110E000E086E00E94FF02892BC9F415
:10258000802F0E94FF02892BA1F4802F0E94FF025E
:1025900021E030E0892B11F030E020E0002E02C075
:1025A000220F331F0A94E2F720643093090220932C
:1025B00008020F5F1F4F06301105E9F6009108026F
:1025C0001091090281E00115110509F00FC10E9467
:1025D000480B83E991E00E94F50927C1812F0E94F1
:1025E000FF02892B09F428CFD5016C9184E792E092
:1025F0000E94AE0921CF21602ECF84E792E00E9495
:10260000AE0940CF84E792E00E94AE0948CF84E74C
:1026100092E00E94AE0950CF84E792E00E94AE099A
:1026200058CF813099F58091FD019091FE0160E0D5
:10263000181619063CF58EE10E94AB088091FF0147
:10264000909100026EE1181619060CF060E080E02F
:102650000E94AB088091F9019091FA0160E0181690
:10266000190694F482EE0E94AB088091FB019091D0
:10267000FC0162EE181619060CF060E080E00E9482
:10268000AB0827CF80E0D8CF80E0EDCF823009F0D3
:102690005DC08091FD019091FE011816190654F459
:1026A0008091F7019091F8018C53964F9093F80127
:1026B0008093F7018091FF0190910002181619068E
:1026C00054F48091F5019091F6018C53964F9093BC
:1026D000F6018093F5018091F9019091FA011816A5
:1026E000190654F48091F7019091F801845C9940A7
:1026F0009093F8018093F7018091FB019091FC0188
:102700001816190654F48091F5019091F601845C35
:1027100099409093F6018093F5018091F701909193
:10272000F8019093AD028093AC028091F5019091F5
:10273000F6019093AF028093AE024FE050E068EA5A
:1027400072E086EA92E00E94C708C3CE833009F0A7
:10275000C0CE8091FD019091FE011816190654F427
:102760008091F3019091F4018C53964F9093F40172
:102770008093F3018091FF019091000218161906D1
:1027800054F48091F1019091F2018C53964F909303
:10279000F2018093F1018091F9019091FA011816EC
:1027A000190654F48091F3019091F401845C9940EE
:1027B0009093F4018093F3018091FB019091FC01CF
:1027C0001816190654F48091F1019091F201845C7D
:1027D00099409093F2018093F1018091F3018093ED
:1027E000B4028091F1018093B502A7CF0E94480BFB
:1027F000A801110F660B770B19A2CE0181968A01F1
:102800009B010170112722273327769567955795ED
:102810004795005DFC010293CF014115510561050B
:10282000710569F7EF2B09F0D6CE809108029091DF
:10283000090282349105D9F164F481349105A9F03B
:1028400010920102109202021092030210920402EE
:1028500011C08434910589F18834910589F78091FC
:1028600004028F5F8093040205C0809101028F5F94
:102870008093010280910102813528F110920A02B1
:10288000109209021092080280E00E94480B809189
:102890000A02813099F168F1823099F18330A1F117
:1028A000E114F10409F4B7CD0E940000B4CD809189
:1028B00002028F5F80930202DDCF809103028F5F5F
:1028C00080930302D7CF80910202813520F081E00E
:1028D00080930A02D5CF80910302813518F0C0920F
:1028E0000A02CECF80910402813550F2D0920A02C2
:1028F000C7CF8BE991E00E94F509D2CF84EA91E03D
:10290000FACF8DEA91E0F7CF86EB91E0F4CFEE0FAE
:10291000FF1F0590F491E02D09940F931F93CF931F
:10292000DF938230910510F482E090E0E091CF02D5
:10293000F091D00230E020E0B0E0A0E0309799F4D0
:102940002115310509F44AC0281B390B2430310503
:10295000D8F58A819B816115710589F1FB0193830B
:102960008283FE0111C04081518102811381481789
:102970005907E0F04817590799F4109761F012963B
:102980000C93129713961C933296CF01DF91CF913F
:102990001F910F9108950093CF021093D002F4CFAE
:1029A0002115310551F04217530738F0A901DB0119
:1029B0009A01BD01DF01F801C1CFEF01F9CF90937A
:1029C000D0028093CF02CDCFFE01E20FF31F81939F
:1029D00091932250310939832883D7CF2091CD029A
:1029E0003091CE02232B41F4209117013091180130
:1029F0003093CE022093CD02209115013091160123
:102A00002115310541F42DB73EB740911901509180
:102A10001A01241B350BE091CD02F091CE02E21792
:102A2000F307A0F42E1B3F0B2817390778F0AC01F1
:102A30004E5F5F4F2417350748F04E0F5F1F5093CE
:102A4000CE024093CD02819391939FCFF0E0E0E0DE
:102A50009CCFCF93DF930097E9F0FC01329713826C
:102A60001282A091CF02B091D002ED0130E020E0BF
:102A70001097A1F420813181820F931F2091CD0204
:102A80003091CE022817390709F061C0F093CE02C9
:102A9000E093CD02DF91CF910895EA01CE17DF07D1
:102AA000E8F54A815B819E0141155105B1F7E901C5
:102AB000FB83EA8349915991C40FD51FEC17FD0799
:102AC00061F4808191810296840F951FE9019983B9
:102AD0008883828193819B838A83F0E0E0E0129671
:102AE0008D919C9113970097B9F52D913C91119779
:102AF000CD010296820F931F2091CD023091CE021C
:102B00002817390739F6309751F51092D0021092F4
:102B1000CF02B093CE02A093CD02BCCFD383C283A9
:102B200040815181840F951FC817D90761F44E5F0A
:102B30005F4F88819981480F591F518340838A8153
:102B40009B81938382832115310509F0B0CFF093E7
:102B5000D002E093CF029ECFFD01DC01C0CF1382F3
:082B60001282D7CFF894FFCFD9
:102B68000A0000C18081000000FFFFFFFF00E100B4
:102B780000000000000000D10280000000400014A6
:102B8800005400000000000307B10776075B070048
:102B98000204000300011003020000030201000602
:102BA800000400060500200605040073646B6C63CE
:102BB8006D000171776F700000000082024F05B050
:102BC800049802E502A302C10200000000DE0972B7
:102BD80005970896087D086E08D808000000009A36
:102BE8000800000000C70800000000790B72059774
:102BF80008960830303030303030006B6579626FBD
:102C0800617264004D6F75736558592000416E619B
:102C18006C6F67585900416E616C6F67525A0000BB
:00000001FF
